:020000040000fa
:080000000002040000000000f2
:020000040000fa
:04000800ac02000046
:020000040000fa
:04000c00ac02000042
:020000040000fa
:04001000ac0200003e
:020000040000fa
:04001400ac0200003a
:020000040000fa
:04001800ac02000036
:020000040000fa
:04001c00ac02000032
:020000040000fa
:04002000ac0200002e
:020000040000fa
:04002400ac0200002a
:020000040000fa
:04002800ac02000026
:020000040000fa
:04002c00481e00006a
:020000040000fa
:04003000ac0200001e
:020000040000fa
:04003400ac0200001a
:020000040000fa
:04003800ac02000016
:020000040000fa
:04003c00ac02000012
:020000040000fa
:04004000ac0200000e
:020000040000fa
:04004400ac0200000a
:020000040000fa
:04004800ac02000006
:020000040000fa
:04004c00ac02000002
:020000040000fa
:04005000ac020000fe
:020000040000fa
:04005400d21f0000b7
:020000040000fa
:04005800de200000a6
:020000040000fa
:04005c00ac020000f2
:020000040000fa
:04006000ac020000ee
:020000040000fa
:04006400ac020000ea
:020000040000fa
:04006800ac020000e6
:020000040000fa
:04006c00ac020000e2
:020000040000fa
:04007000ac020000de
:020000040000fa
:04007400ac020000da
:020000040000fa
:04007800ac020000d6
:020000040000fa
:04007c00ac020000d2
:020000040000fa
:04008000ac020000ce
:020000040000fa
:04008400ac020000ca
:020000040000fa
:04008800ac020000c6
:020000040000fa
:04008c00ac020000c2
:020000040000fa
:04009000ac020000be
:020000040000fa
:04009400ac020000ba
:020000040000fa
:04009800b01f000095
:020000040000fa
:04009c00ac020000b2
:020000040000fa
:0400a000ac020000ae
:020000040000fa
:0400a400e620000052
:020000040000fa
:0400a800ac020000a6
:020000040000fa
:0400ac00122200001c
:020000040000fa
:0400b000ac0200009e
:020000040000fa
:0400b400ac0200009a
:020000040000fa
:0400b800ac02000096
:020000040000fa
:0400bc00ac02000092
:020000040000fa
:0400c000ac0200008e
:020000040000fa
:0400c400ac0200008a
:020000040000fa
:0400c800ac02000086
:020000040000fa
:0400cc00ac02000082
:020000040000fa
:0400d000ac0200007e
:020000040000fa
:0400d400ac0200007a
:020000040000fa
:0400d800ac02000076
:020000040000fa
:0400dc00ac02000072
:020000040000fa
:0400e000ac0200006e
:020000040000fa
:0400e400ac0200006a
:020000040000fa
:0400e800ac02000066
:020000040000fa
:0400ec00ac02000062
:020000040000fa
:0400f000ac0200005e
:020000040000fa
:0400f400ac0200005a
:020000040000fa
:0400f800ac02000056
:020000040000fa
:0400fc00ac02000052
:020000040000fa
:04010000ac0200004d
:020000040000fa
:04010400ac02000049
:020000040000fa
:04010800ac02000045
:020000040000fa
:04010c00ac02000041
:020000040000fa
:04011000ac0200003d
:020000040000fa
:04011400ac02000039
:020000040000fa
:04011800ac02000035
:020000040000fa
:04011c00ac02000031
:020000040000fa
:04012000ac0200002d
:020000040000fa
:04012400ac02000029
:020000040000fa
:04012800ac02000025
:020000040000fa
:04012c00ac02000021
:020000040000fa
:04013000ac0200001d
:020000040000fa
:04013400ac02000019
:020000040000fa
:04013800ac02000015
:020000040000fa
:04013c00ac02000011
:020000040000fa
:04014000ac0200000d
:020000040000fa
:04014400ac02000009
:020000040000fa
:04014800ac02000005
:020000040000fa
:04014c00ac02000001
:020000040000fa
:04015000ac020000fd
:020000040000fa
:04015400ac020000f9
:020000040000fa
:04015800ac020000f5
:020000040000fa
:04015c00ac020000f1
:020000040000fa
:04016000ac020000ed
:020000040000fa
:04016400ac020000e9
:020000040000fa
:04016800ac020000e5
:020000040000fa
:04016c00ac020000e1
:020000040000fa
:04017000ac020000dd
:020000040000fa
:04017400ac020000d9
:020000040000fa
:04017800ac020000d5
:020000040000fa
:04017c00ac020000d1
:020000040000fa
:04018000ac020000cd
:020000040000fa
:04018400ac020000c9
:020000040000fa
:04018800ac020000c5
:020000040000fa
:04018c00ac020000c1
:020000040000fa
:04019000ac020000bd
:020000040000fa
:04019400ac020000b9
:020000040000fa
:04019800ac020000b5
:020000040000fa
:04019c00ac020000b1
:020000040000fa
:0401a000ac020000ad
:020000040000fa
:0401a400ac020000a9
:020000040000fa
:0401a800ac020000a5
:020000040000fa
:0401ac00ac020000a1
:020000040000fa
:0401b000ac0200009d
:020000040000fa
:0401b400ac02000099
:020000040000fa
:0401b800ac02000095
:020000040000fa
:0401bc00ac02000091
:020000040000fa
:0401c000ac0200008d
:020000040000fa
:0401c400ac02000089
:020000040000fa
:0401c800ac02000085
:020000040000fa
:0401cc00ac02000081
:020000040000fa
:0401d000ac0200007d
:020000040000fa
:0401d400ac02000079
:020000040000fa
:0401d800ac02000075
:020000040000fa
:0401dc00ac02000071
:020000040000fa
:0401e000ee2000000d
:020000040000fa
:0401e4005a2100009c
:020000040000fa
:0401e800c62100002c
:020000040000fa
:0401ec00ac02000061
:020000040000fa
:0401f000ac0200005d
:020000040000fa
:0401f400ac02000059
:020000040000fa
:0401f800ac02000055
:020000040000fa
:0401fc00ac02000051
:020000040000fa
:04020800ac02000044
:020000040000fa
:04020c00ac02000040
:020000040000fa
:04021000ac0200003c
:020000040000fa
:04021400ac02000038
:020000040000fa
:04021800ac02000034
:020000040000fa
:04021c00ac02000030
:020000040000fa
:04022000ac0200002c
:020000040000fa
:04022400ac02000028
:020000040000fa
:04022800ac02000024
:020000040000fa
:04022c00ac02000020
:020000040000fa
:04023000ac0200001c
:020000040000fa
:04023400ac02000018
:020000040000fa
:04023800ac02000014
:020000040000fa
:04023c00ac02000010
:020000040000fa
:04024000ac0200000c
:020000040000fa
:04024400ac02000008
:020000040000fa
:04024800ac02000004
:020000040000fa
:04024c00ac02000000
:020000040000fa
:04025000ac020000fc
:020000040000fa
:04025400ac020000f8
:020000040000fa
:04025800ac020000f4
:020000040000fa
:04025c00ac020000f0
:020000040000fa
:04026000ac020000ec
:020000040000fa
:04026400ac020000e8
:020000040000fa
:04026800ac020000e4
:020000040000fa
:04026c00ac020000e0
:020000040000fa
:04027000ac020000dc
:020000040000fa
:04027400ac020000d8
:020000040000fa
:04027800ac020000d4
:020000040000fa
:04027c00ac020000d0
:020000040000fa
:04028000ac020000cc
:020000040000fa
:04028400ac020000c8
:020000040000fa
:04028800ac020000c4
:020000040000fa
:04028c00ac020000c0
:020000040000fa
:04029000ac020000bc
:020000040000fa
:04029400ac020000b8
:020000040000fa
:04029800ac020000b4
:020000040000fa
:04029c00ac020000b0
:020000040000fa
:0402a000ac020000ac
:020000040000fa
:0402a400ac020000a8
:020000040000fa
:0402a800ac020000a4
:020000040000fa
:0402ac00ac020000a0
:020000040000fa
:0402b000ac0200009c
:020000040000fa
:0402b400ac02000098
:020000040000fa
:0402b800ac02000094
:020000040000fa
:0402bc00ac02000090
:020000040000fa
:0402c000ac0200008c
:020000040000fa
:0402c400ac02000088
:020000040000fa
:0402c800ac02000084
:020000040000fa
:0402cc00ac02000080
:020000040000fa
:0402d000ac0200007c
:020000040000fa
:0402d400ac02000078
:020000040000fa
:0402d800ac02000074
:020000040000fa
:0402dc00ac02000070
:020000040000fa
:0402e000ac0200006c
:020000040000fa
:0402e400ac02000068
:020000040000fa
:0402e800ac02000064
:020000040000fa
:0402ec00ac02000060
:020000040000fa
:0402f000ac0200005c
:020000040000fa
:0402f400ac02000058
:020000040000fa
:0402f800ac02000054
:020000040000fa
:0402fc00ac02000050
:020000040000fa
:04030000ac0200004b
:020000040000fa
:04030400ac02000047
:020000040000fa
:04030800ac02000043
:020000040000fa
:04030c00ac0200003f
:020000040000fa
:04031000ac0200003b
:020000040000fa
:04031400ac02000037
:020000040000fa
:04031800ac02000033
:020000040000fa
:04031c00ac0200002f
:020000040000fa
:04032000ac0200002b
:020000040000fa
:04032400ac02000027
:020000040000fa
:04032800ac02000023
:020000040000fa
:04032c00ac0200001f
:020000040000fa
:04033000ac0200001b
:020000040000fa
:04033400ac02000017
:020000040000fa
:04033800ac02000013
:020000040000fa
:04033c00ac0200000f
:020000040000fa
:04034000ac0200000b
:020000040000fa
:04034400ac02000007
:020000040000fa
:04034800ac02000003
:020000040000fa
:04034c00ac020000ff
:020000040000fa
:04035000ac020000fb
:020000040000fa
:04035400ac020000f7
:020000040000fa
:04035800ac020000f3
:020000040000fa
:04035c00ac020000ef
:020000040000fa
:04036000ac020000eb
:020000040000fa
:04036400ac020000e7
:020000040000fa
:04036800ac020000e3
:020000040000fa
:04036c00ac020000df
:020000040000fa
:04037000ac020000db
:020000040000fa
:04037400ac020000d7
:020000040000fa
:04037800ac020000d3
:020000040000fa
:04037c00ac020000cf
:020000040000fa
:04038000ac020000cb
:020000040000fa
:04038400ac020000c7
:020000040000fa
:04038800ac020000c3
:020000040000fa
:04038c00ac020000bf
:020000040000fa
:04039000ac020000bb
:020000040000fa
:04039400ac020000b7
:020000040000fa
:04039800ac020000b3
:020000040000fa
:04039c00ac020000af
:020000040000fa
:0403a000ac020000ab
:020000040000fa
:0403a400ac020000a7
:020000040000fa
:0403a800ac020000a3
:020000040000fa
:0403ac00ac0200009f
:020000040000fa
:0403b000ac0200009b
:020000040000fa
:0403b400ac02000097
:020000040000fa
:0403b800ac02000093
:020000040000fa
:0403bc00ac0200008f
:020000040000fa
:0403c000ac0200008b
:020000040000fa
:0403c400ac02000087
:020000040000fa
:0403c800ac02000083
:020000040000fa
:0403cc00ac0200007f
:020000040000fa
:0403d000ac0200007b
:020000040000fa
:0403d400ac02000077
:020000040000fa
:0403d800ac02000073
:020000040000fa
:0403dc00ac0200006f
:020000040000fa
:0403e000ac0200006b
:020000040000fa
:0403e400ac02000067
:020000040000fa
:0403e800ac02000063
:020000040000fa
:0403ec00ac0200005f
:020000040000fa
:0403f000ac0200005b
:020000040000fa
:0403f400ac02000057
:020000040000fa
:0403f800ac02000053
:020000040000fa
:0403fc00ac0200004f
:020000040000fa
:10040000af9120000ebf22000e0188000000000006
:10041000000020000000e000020032000001200087
:10042000200288000c000700408c22000100200000
:1004300011000700000020000000e0000200320070
:100440000000020000000000ec1c020000000000a0
:100450000040da000000fe004440a900001920001e
:100460000000e0000300320000002000a00188002e
:100470004440a80000000600910188008000780038
:100480000000eb0015003700e280400032a0b4000d
:100490009101ba00e280400032a0b4009102ba009b
:1004a000e280400032a0b4000002eb00472bde00e7
:1004b000f507b200602ce10004003a000059eb009f
:1004c0008301e900fdff3e00040037006128e100e0
:1004d000010032000082eb000b00070011c3ba00dc
:1004e0001101ba000604e00003003a000200e00037
:1004f000e5ff3a0000000600f607b200960188000a
:1005000082007800f5ff37003159ba008301e90015
:100510000c0032002159ba008301e90008003200c2
:100520000400e00003003a00e280400032a0b40082
:10053000f5ff370011d9ba008301e900faff3a004c
:100540008100e800e180400032a0b4000000060015
:1005500000000000000000000040da000000fe0083
:1005600003f0a200889fbe008a9fbe008c1f780007
:10057000ff000700060133006450e1004f00320025
:100580006420e1005200320003826c0007003b004f
:100590000905d0000306d000820f54000c065d0050
:1005a0000200390002003200890178000306780059
:1005b0008582550004003d000003fd008103fd001d
:1005c0008502ea008b854200840f720002003b0026
:1005d00060001000e08018006011b8000005eb001a
:1005e0007a28e1000a00390006007800c75ddd00c6
:1005f000f707b200878075002d00370082817100f7
:100600000a017800610560008180d1000080d3007c
:100610008502e900f9ff3b0006044000878448009a
:1006200002003b0060041400e0841c000988a30061
:10063000070032008a8171008281710061016400cb
:100640008904d1000884d3008b05e8001700370027
:100650000978a30013003a000b00e00013003400f7
:100660008b05e9000804440089844c000a447400a6
:100670000978a3000d003a000b00e00007003400e9
:100680008b05e9000804440089844c0001003a000d
:100690000b0020000978a300f7ff32000001eb00f7
:1006a00002003700828171000a017800750007009e
:1006b0000cf0a70001f0a000be0037006420e100ac
:1006c00002003a00838f6c00be0033000801be00b8
:1006d0000200be00b7003700889fbe008a9fbe00a0
:1006e0008c1f7800a2000700a900330003866c006d
:1006f0006450e1002e0032006420e100330032003b
:100700006150e1002f0032006120e1003100320031
:1007100085855500eb07b000090020000804200083
:10072000050037000804440089844c000a003100a9
:100730000603430087834b000001530081815b0067
:10074000f8ff33000203be000800a00008044400c4
:1007500089844c00f6ff3900c639dd00830173003f
:1007600001003200130020008904d1000884d30066
:100770000998a300050032000800a7000300a000ac
:100780008904d1000884d3008b05e8008904d100d6
:100790000884d3000001eb000281d2003900070079
:1007a00001f0a1000cf0a70001f0a00081003700cb
:1007b0006420e100830032000801be000200be0098
:1007c000f7ff37006120e1007e0032006000b800d2
:1007d000f3ff37000000200001f82700f0ff37008a
:1007e00014002000d5003700f4ff2f00d30037009d
:1007f0000001be00490007000470a70003f0a1003b
:1008000003f8a30013003a006509b100100032009c
:10081000090035006928e1000200350001002800c8
:100820000000050000004000818048008502e900ca
:10083000fcff3a0000000600f88f4200050035007a
:100840008100d1000080d3008502e800fcff3a005f
:10085000000006008000eb00000005006011b800f9
:10086000d10037000001eb008d00070004003200ca
:100870000200200003f8230001f0a70038ff070062
:100880000000060081002000618055000b003d0043
:100890000b00200061fe2f000100e1001d0034006c
:1008a00082817100610164008904d1000884d30051
:1008b0000000e800faff3a007100200061006400c7
:1008c000030070000200600009003200610444006f
:1008d000e0844c000988a500050032008b05e80083
:1008e0006808e10002003a008904d1000884d300be
:1008f000f20f20000258e10005003d00c75ddd0059
:10090000f907b20089807500080078000000060031
:100910000bf827008b00780000000500c70ade00f6
:10092000f107b200f50fb20008003200e1cf42003b
:10093000020032000170a00024000500810f700049
:10094000010032000408050044000500810f70001a
:1009500002003a00140005008502e9000000400092
:1009600081c04800fcff3b000170a000240005008e
:100970000004be00e9ff07000003be000405be003e
:100980000200be00e5ff0700844f7500000006006e
:100990000200be006450e100050036006420e10062
:1009a000020036000968a30001003a000800be00fa
:1009b0000160a0004f0678004f05be004f04be0046
:1009c00000000600f0ff2f00f1ff2700f9ff3700bd
:1009d000889fbe008a9fbe008c1f7800e4ff07003e
:1009e000ebff330003866c006450e100240032000a
:1009f0006420e100270032006150e1002200320053
:100a00006120e100210032008b854200eb07b1003c
:100a10000134b800003ab8000804420089844a0052
:100a2000013ab8000030b8008880400009014a004f
:100a300004003300000040008180480002014900aa
:100a40008b05e900c909dd00830170000100320057
:100a500013002000c814de004814dd004709de0042
:100a60001200b200c808de000884700085ff07008d
:100a700001f0a1000cf0a70001f0a000cdff3700ad
:100a80006120e100cfff32000801be000200be007d
:100a9000f7ff37006150e100fcff3a00c9ff370063
:100aa000889fbe008a9fbe000003be009bff070018
:100ab0008505780082815200020020006220e1005a
:100ac00004003a00f307b100040035007718e10094
:100ad000040035000600be00140037006000b800b6
:100ae0000f003700f50f2000faff2f008502d1001c
:100af0000a85d3008301e900fcff3b00818462008a
:100b000000046500890f7400f2ff32008582ea005c
:100b10000a85ea00818462000004650059ff07002d
:100b200007f0a70001f0a0000081eb000200e00048
:100b30004f05be004f04be0000000600889fbe00a7
:100b40008a9fbe00841f780089ff07004f0078004d
:100b500011003300f0ff2f00838f6c0006003b0074
:100b6000040565000a00a7000800370009f0a60088
:100b70001000200008003700820f5400838f5c00b3
:100b8000030039001000200001003e00000020009a
:100b900009f0a7000000ea004f05be004f04be00a8
:100ba0000000e00000000600889fbe008a9fbe0093
:100bb000008270000402710004827100260032007d
:100bc0000004be000200be006011b8006b092000e6
:100bd000950220000182cf000a0039000541b100d2
:100be0000082cf00070039000541b1000982cf0023
:100bf000040039000541b1000882cf00010039002e
:100c00000541b10005425200120032000a003b00cb
:100c100082817100610164008100d1000080d300f5
:100c20008984d3000884d3008b05e8000442e800df
:100c3000f7ff3a00070037000804440089844c009d
:100c400000004800818048008b05e9000442e9006b
:100c5000f9ff3a000bff07004f05be004f04be002e
:100c600000000600881f7800020478000801780060
:100c70005b040700080040004f04780000000600f5
:100c80000000fa00881f780000047800ea8157000d
:100c90003fb9970088007800206320000700070014
:100ca0000000e000020035008040eb000174780095
:100cb0004f0478000080fa00000006006200fa008d
:100cc000889fbe008a1f78000005780081047800a4
:100cd000020478008300780080f92f000f004000a4
:100ce000670607009a979f00a9979f000000eb00f6
:100cf000b09f9f001885fb008a04fb000a05ea00ec
:100d00004f55de0050022000808f54000d0032004d
:100d1000e10f55000b003a000a01780088007800c6
:100d20002f9097009f91970003000100a0979f00cc
:100d30000000e0008e0032003f9897000000e800bd
:100d4000b09f9f000a04440050022000808f54008e
:100d5000040032000900e000e6ff3a003f989700e7
:100d6000840037000000eb00909f9f00809f9f0051
:100d7000f0979f00e0979f00d0979f00c0979f003b
:100d800007003700219120000100500000004000c2
:100d90006190200061007800df98970001007000ea
:100da000d09f9f00880478000904780038457800b7
:100db0008a00fb0020912000100407000000e000e2
:100dc000f0ff3a00a1c2b300814f55000e003a0077
:100dd000cf8897000180e900c08f9f001000780045
:100de000c09f9f000000e00005003d000000ea00f9
:100df000c09f9f005f9897000020a000d09f9f0099
:100e00000904e8000f003700c09f9f000000eb00be
:100e100005003700f2ff2700820f50000200320069
:100e20006a01b90002804000090478008804780053
:100e3000b900fb000103b100e98f5000f5ff360057
:100e4000c09f9f00e0c2b300984f10000200320024
:100e50000080eb0019003700a0c2b300d84f10008b
:100e600007003a00cf8897000180e900c08f9f00fb
:100e700010007800a09f9f000804e80010003700d1
:100e80000000eb00a09f9f0088007800050037005d
:100e9000f3ff2700830f5000020032006a02b900fe
:100ea0000400410001047800880078003101fb0053
:100eb0000203b100e90f5100f5ff3600a09f9f002b
:100ec000984478008900fb00e08f2000cb030700e6
:100ed0000000e000020032000804e80001003700d2
:100ee0008044eb00c97f9f0080c6b30080cf5400d0
:100ef00004003a0098cf14000a003a0066405000ff
:100f000006003700c0c6b30080cf540005003a0089
:100f100098cf140003003a0065404000c07f9f0056
:100f20000804e8001801fb00e3fb2f008f8141005b
:100f300081f92f008f804000a0f92f000f004000a2
:100f4000100007000000e00009003a00e1fb2f005c
:100f50008f804000a0f92f000f0040000c05070013
:100f60000000e000020035000804e80061ff3700df
:100f70000080eb004f0578004f04be000080fa00af
:100f800000000600889fbe008a1f780000047800d9
:100f9000824478000305780070c6b30080cf540007
:100fa0001a003c0000c0e90080cf5400c5003d009d
:100fb0006d40500080cf5400740032000b003c00a4
:100fc0007140500080cf54002d013c0000c0e9006a
:100fd00080cf5400bb003d0050c2b30080cf54000e
:100fe000240132007c4040000500370030c6b300c9
:100ff00080cf54001a0032001e003c0000c0e900ff
:1010000080cf54001e013a00ae003700f0c6b30096
:1010100080cf54005d00320007003c006640500065
:1010200080cf5400130032006540400080cf540050
:1010300013013a00cc00370050c7b30080cf5400f2
:10104000520032006340400080cf54004f00320015
:1010500002c7b30082cf540009013a00f7003700fd
:101060001181e900820878007800900012757800fc
:101070000901370028609000c2c6b300824f5000bb
:1010800007003a00110178006400510080087800e0
:101090001000be004f89de00820178001100370089
:1010a00012c7b300824f500003003200a2c6b30043
:1010b000824f500006003a0011017800680051008c
:1010c000800878005001be004000be0005003700d7
:1010d0001180e9008008780010007800cf80de00e1
:1010e0006109b900009cbe000294be002862900015
:1010f00085c6b300854f52000d00320025c6b300ef
:10110000854f520004003a000000fb00cf80de0053
:101110006109b9000800370045c7b300854f520088
:1011200003003200e6c24200854f520004003a003c
:10113000cf80de006109b900009cbe000294be00b1
:101140003802be002803be0078009000d1c2b30070
:10115000e00f5200e08f5a00e00f5b00e08f5b0071
:1011600008003500881090000118a300020032002a
:10117000b1c2b300030037000108a3004c003200e5
:1011800001c2b30001757800470037002860900065
:10119000c2c6b300824f500006003a001101780029
:1011a00064005100800878001000be006011b80093
:1011b0001100370012c7b300824f50000300320005
:1011c000a2c6b300824f500006003a001101780019
:1011d00068005100800878005001be004000be0049
:1011e000050037001180e9008008780010007800c1
:1011f0008000eb006011b800009cbe000294be00ad
:101200002862900085c6b300854f52000d00320061
:1012100025c6b300854f520004003a000080fb0051
:101220008000eb006011b8000800370045c7b3002c
:10123000854f520003003200e6c24200854f520043
:1012400004003a008000eb006011b800009cbe0072
:101250000294be00081090000038a3001400320071
:101260003800be002801be00e00f5000e08f58009b
:10127000e00f5900e08f59000d00320080c7b30025
:1012800080cf54000300320080c5b30080cf5400eb
:1012900007003a007800900001c3b30001757800a0
:1012a0000000e800097578000000e800700498006c
:1012b00078009000000545006a0498008940780095
:1012c0006900370028619000c0c4b300804f51000e
:1012d00006003a001101780068005100800878008b
:1012e0005001be004000be0005003700110178002b
:1012f00064005100800878001000be00e605070079
:10130000009cbe000294be00b800900078009000df
:101310000100e00002003d00d1c2b3000800370028
:10132000881090000118a30002003200b1c2b3007f
:10133000030037000108a3000400320001c2b3001b
:10134000017578000000e8007004980078009000b3
:10135000000545006a0498008900fb000800780039
:10136000530007004e00370028619000c3c6b30049
:101370001180e900834f5100240032000a003c0034
:10138000e4c15100834f51002700320083c1e800bf
:10139000834f51001500320020c6b300804f51002a
:1013a00020003a000a00370043c7b300834f5100c2
:1013b0001d003200e6c14100834f51001a00320087
:1013c00010c7b300804f510016003a0006003700e6
:1013d0001180e9008008780010007800485c9000d7
:1013e000084878002e0037001180e9008008780056
:1013f00010007800680a9000cfa2de00612bb900cf
:101400000498be000690be002500370080087800d2
:101410001000780068099000cf91de000288be00bd
:101420001f0037001180e900800878001000780064
:10143000680c900008087800190037001181e90055
:101440008208780012027800cfa2de00612bb9007a
:10145000049cbe000694be00f80090000105450003
:101460006a0498008040780008007800990207001c
:101470000b003700780090000975780006003700ef
:1014800078009000000545000904e00001003a00e2
:1014900059c2b300094d78000000e80070049800bc
:1014a0000000eb004f0578004f04be00000006006e
:1014b0002f04b000889fbe008a9fbe008c9fbe0094
:1014c0008e1f78000007780081f79f003e04be0061
:1014d0002e05be005e0890000000e00002003d0006
:1014e00060002000500f98008e00780020fb2f0035
:1014f0000f0040004d020700e20f50000a003a00c2
:1015000030002000100f9800b1c9b3000ff0970011
:101510008140400060852000e1cf50000d003e007a
:10152000208520000b0037000000e0000f00340091
:1015300030002000100f9800b1c9b3000ff19700e0
:1015400081404100e0852000e1cf500001003e00d5
:10155000a0852000ee009000b0487800b0687800c8
:101560001040780090409800f30037000000e00041
:1015700005003a0022fb2f000f01410000197800fe
:101580008001eb00e70037006022b8006033b8004c
:101590000800be000a01be00870407000000e0004a
:1015a00001003d000bf0a200705927009f989700a2
:1015b0000088b900026a280013002000e204070036
:1015c000640650009c9f9f0013003b0063061600ba
:1015d000c0ff2f00000666008c01ea00939f9f0069
:1015e0002d8620000800be000a01be00070037005b
:1015f0000c08a300030032003d02be002d03be0014
:10160000730507000c86d100e88646000c00e00058
:10161000f7ff3c00180037000c00e0001800320013
:10162000c0ff2f00000666009c9f9f002d862000b3
:101630006000b8000200200003ff2300070037000d
:101640000c08a300030032003d02be002d03be00c3
:101650005f0507000c86d100e88646000c00e0001c
:10166000f7ff3c000002be000203be000800be00ff
:101670000a01be005a0407000004be000205be00b5
:10168000de08900060c6b3000ff29700804f520052
:10169000040032006000200062c4b300824f520098
:1016a00002003a009f9a97006a8042008100400041
:1016b000f1b79f0001037800f30f530002003400dc
:1016c00037012000f7b79f0000c3b300c0779f0029
:1016d00056fb2f000f0343000e007800a0b79f00b9
:1016e000060778003d0037000800be000a01be0072
:1016f000080507000006be007fb197006801510091
:10170000f2b79f004240a9000c0034002d050700ed
:101710000002be000203be000800be000a01be00b7
:10172000a00507006022b80046782d007719240034
:10173000270507000004be000205be00e8004700c0
:101740008e0020000802be000a03be00b4b79f004e
:10175000c5b79f00d6b79f00e7b79f000c01be003a
:10176000010478000c003700a400200005002000d0
:10177000c0fd2f000f004000840107006fa89700f4
:10178000ffa897000fb197009fb1970005c3b30062
:10179000056441000001be00e00f5100e08f5900d8
:1017a000030034000e07e900e10f4700eeff3a00a6
:1017b000880078003fb49700cfb497005fb59700da
:1017c000efb597000200370000c3b30080607800d7
:1017d0000e07e900fcff3b00688740007fb39700dd
:1017e0000600e000070034006022b8006033b80053
:1017f0000800be000a01be00f40307000000e0007c
:10180000b9ff3c000e0378002fb7970051fb2f0063
:101810008f804000010353009f9b97006780430027
:10182000909f9f00020037000603e9000000e900d6
:10183000010178008200780003c3b300b1cf11002a
:10184000f9ff3200909f9f00de09900061c6b3004f
:101850000ff29700814f52000300320061c4b300c1
:10186000814f520002003a000000e8000a003700f1
:101870001000200051c6b3008ff2970081cf5200b4
:10188000050032000540780050c4b2000080fb0023
:101890000000e9004f00de0083014000868f510008
:1018a00001003400860178000300e0001d003500cf
:1018b00000c3b300868f510006003d0062c279006c
:1018c0006940400041c3b300814f520001003c0019
:1018d000694050008300e9008100410001003700a9
:1018e000840178000302e90001037800a142780036
:1018f00080cf5200faff320091c3b300814f5000f5
:1019000001003a00054be8000400e00005003d003e
:101910000201e9008301e8001f9b97000603e8002d
:10192000969f9f008ff397008700fb001f9a9700f8
:101930000e007800060007004f0778004f06be0033
:101940004f05be004f04be002f04b100000006008a
:10195000f0874700889fbe008a9fbe008c9fbe0014
:101960008e1f780000047800814478000205be00d4
:10197000040678000b00e00002003c001b00200081
:101980008a91200060c6b30080cf54000e00320060
:1019900060c4b30080cf54000b00320070c6b300a7
:1019a00080cf54000300320070c4b30080cf5400d5
:1019b00081003a00e40f46007f003500580890008f
:1019c000800f56007c003d000c06e80060c6b300a6
:1019d00080cf54001000320060c4b30080cf5400a8
:1019e0000d003200081090000038a30004003a00f7
:1019f00058089000808f550001003d005b0c980056
:101a0000580890000c005000500c980002003b0059
:101a10000000eb00500c980018089000e8009000bf
:101a20000c00e00026003c0002c3b3008270780086
:101a30000000e800100c9800d80890000100e000b9
:101a400003003c00881090000138a300050032001c
:101a5000e8009000e2c2b300827078000000e80065
:101a6000100c9800580890008c00ea00810f50007c
:101a700001003d000006ea008c00ea00210c9800fd
:101a8000000646005c0c98008b0f560001003400e5
:101a90000b0678003c0c9800e800900018089000b5
:101aa000008040000c0178008a007800cc0007001c
:101ab000580890000c0650004c0c9800900037001d
:101ac0008c8f550018003d00008040000b0178000d
:101ad0008a007800c20007001808900000804500c6
:101ae000100c98008b0556002b0c9800d80890001d
:101af0000100e00003003c00881090000138a300c2
:101b000006003200e8009000e2c2b3008270780064
:101b1000380890000000e800300c98005808900049
:101b2000400c980076003700008040000c017800df
:101b30008a007800aa0007001808900000004600fc
:101b4000100c98008c855500d80890000100e0002a
:101b500003003c00881090000138a300050032000b
:101b6000e8009000e2c2b300827078000000e80054
:101b7000100c980058089000808f55000100340028
:101b800080057800e8009000180890000080400070
:101b90008c0045000b0178009100070018089000a8
:101ba0000b004000100c9800580890008b05500066
:101bb0002b0c98005200370018089000e8009000a5
:101bc0009a7078000000e800100c9800d808900087
:101bd0000100e00003003c00881090000138a300e1
:101be00005003200e8009000e2c2b3008270780085
:101bf0000000e800100c9800580890000000e00079
:101c0000100034008b05e900808f5500010034007e
:101c100080057800e80090001808900000804000df
:101c20008a00e8000b0178006d000700180890009a
:101c30000b004000100c9800580890008b055000d5
:101c40002b0c9800e80090001808900000804000dd
:101c5000095878000007e8000c00e0000400350097
:101c6000b1c2b300014878008e0478000400370048
:101c7000d1c2b300014878008e0478000c06ea0057
:101c80007d8557008006eb0009003700a200200088
:101c90008c00780072805700310007007fb09700f9
:101ca0008fb89700016d7800000678008d06e80077
:101cb0000c00e000f5ff3c000d00e00009003a00d8
:101cc0008e04780000c3b300805c78000500370004
:101cd0008d06e900fc80570061c07e0002c3b3009e
:101ce000825c40000d00e000f9ff3c00e80090003d
:101cf000180890000080400080845400390c98003f
:101d00000810900074006000f00f50000e003a00c0
:101d1000980890007800900000804000a80890008b
:101d200001004000b808900001004000c808900081
:101d300001004000f8089000810f500002003d00b3
:101d400000805000000c98004f0778004f06be003e
:101d50004f05be004f04be000f01b1000000060099
:101d60008002780001037800110009000203d80006
:101d700080017800830a78000299b90002015300bb
:101d8000920298000500780000000600881f780085
:101d90008a9fbe008c9fbe00000478000205be0032
:101da0000406be000401be000a00be00e6020700f1
:101db000008cbe000c01be000f040700000555009a
:101dc00081855d002a0498003b0498000800780093
:101dd0004f06be004f05be004f047800000006000d
:101de0008001780002003700b15978000201e90053
:101df0000200e000fcff3a0000000600020037008d
:101e00000304e000060032000001780002007800c0
:101e1000b041780081cf5100f9ff3a00010037004e
:101e20000001eb000200780000000600889fbe0061
:101e300000047800e68440001900d0004500de0070
:101e4000f27f2000820f500010003a00000ceb00df
:101e5000990478006f816400200020001b003a0084
:101e6000210190000200e00018003a0011019000ea
:101e70000200e00015003a00100020001100e00010
:101e80001200320020002000100037000000e000a7
:101e900004003a0001007800fb0107000000e000a8
:101ea00008003c00f20028001901610001fe230037
:101eb000810c710021c02f00010c40000080eb005c
:101ec00002003700000ceb000000eb004f04be00e6
:101ed00000000600fc874700889fbe008a9fbe0066
:101ee0008c9fbe008e1f78000006780080c5b3006e
:101ef00080cf50000a0032007740400080cf500071
:101f00000a0032006940400080cf50000b003200d0
:101f1000d08e200080bf9f00ae0020000a00370056
:101f2000c28d200082bf9f0006003700d38e2000a4
:101f300083bf9f008e00200003003700d48e200056
:101f400084bf9f000e0120003c02be002c03be0097
:101f50000605be000404be0040c6b30080cf50009a
:101f6000030032006540400080cf50000b003a0073
:101f7000e00f5200e08f5a00e00f5b00e08f5b0043
:101f800006003d006000b8006011b8000404500075
:101f9000858458000605590087855900e80f5700c9
:101fa0000400320040002000f00f570038003a00d3
:101fb0000100370030002000e00f5400e08f5c008b
:101fc000e00f5d00e08f5d0004003a00dc08900047
:101fd0008d0120000100e000060032008e00e900c3
:101fe000888060008fba9700e5c07800f1ef9f000d
:101ff0007d012000800078008100e90005003300a9
:102000008b05d1000a85d3008984d3000884d300ce
:10201000f9ff3700089ebe000a96be001200370086
:102020008d06e9008e00e900848060000fb99700fa
:10203000e2c1780082fd2f000f01410003f17e0014
:10204000800078008100e900050033008783d1001b
:102050000683d3008582d3000482d300f9ff3700c2
:10206000049ebe000696be003c02be002c03be00cd
:10207000e00f5200e08f5a00e00f5b00e08f5b0042
:102080008b0034000d00e000e5ff3c0088003700c5
:102090002c60900081c6b300814f50000b003200cd
:1020a00006003c000004e00008003200e6c05000da
:1020b000814f50004e003a0004003700c1c6b30003
:1020c000814f50004a003a00210037000800e0002c
:1020d00004003a005c0890008d0120000000e00040
:1020e00006003200110009000e84d8000fb99700d5
:1020f000e2c07800f1ef9f007d012000110009008f
:102100000e84d8000a003700110009000e04d80020
:102110008d06e9000e81b900020454008fb89700c3
:1021200061417c0081fd2f008f80400082f07e00a5
:10213000000478000800e000020032000d00e0001a
:10214000f1ff3c00cfc4de00614db900250037002f
:10215000e00f5400e08f5c0004003a005c0890003f
:102160008d0120000000e000070032006171b9001d
:102170000800be001d0307008fb99700e3417800f7
:10218000f3ef9f007d0120006171b9000800be00df
:10219000060307000b0037006171b9000800be009c
:1021a000e90107008d06e90000f1b90002045400be
:1021b0000fba9700e4427c0084fd2f000f0242001a
:1021c00005f27e000004be00e00f5000e08f5800d2
:1021d000020032000d00e000efff3c004fcdde00ba
:1021e0008a057800089ebe000a96be0030003700bf
:1021f000e00f5400e08f5c00e00f5d00e08f5d00b9
:1022000004003a005c0890008d0120000000e0000e
:10221000090032006172b900612bb9000800be00ec
:102220000a01be009a0307000fba970064427800c3
:10223000f4ef9f007d0120006172b900612bb900ad
:102240000800be000a01be008a0307000d00370027
:102250006172b900612bb9000800be000a01be001e
:102260008f0307008d06e90000f2b9000404540052
:102270008fba970065427c0085fd2f008f82420057
:1022800084f27e00009ebe000296be003c04be00aa
:102290002c05be00e00f5400e08f5c00e00f5d00f5
:1022a000e08f5d00020034000d00e000e8ff3c001c
:1022b000e80f570010003a000c1090000038a300ff
:1022c0000d003200f78f560006003e0085fd2f00fe
:1022d0008f824200e5c07e0000c3b30080cf500073
:1022e000050032008d06e90002c3b30081fd2f0016
:1022f0008f80400082f07e0078811600120e9800d8
:102300006c00900083fd2f008f8141008d80410083
:10231000b3fe07001c089000dc089000810f5000fd
:1023200006003d0000805000000e98000c10900048
:102330000040a100001698000f0037000100e000e7
:102340000d003d008c109000f4806000f08f500074
:1023500009003a007c099000fc00900081005100c7
:102360000c09900082805000008050004240a9007b
:1023700001003400000e98004f0778004f06be00a1
:102380004f05be004f04be00cf01b10000000600a3
:102390000400fa00889fbe008a9fbe008c1f780050
:1023a0000004780001067800f80d90007800900095
:1023b0008085550008089000808555001808900019
:1023c00080855500280890008085550038089000c9
:1023d0008085550048089000808555000002220045
:1023e00090bf9f0000032300a0bf9f000810900033
:1023f0000028a30015003a000b00e0001300340091
:102400000b0578008a047800e20f550001003600c1
:1024100029002000c801900009017800ee805700d3
:102420005800900003000100500498000000e000f4
:102430008c0032006808900009004000600c980091
:10244000090555004240a900eeff3c0078019000cc
:102450000200e0000c003400c80190008c007800fd
:102460005800900003000100500498008080eb00a9
:102470000000e0007c003200e80890007800900046
:1024800000804000600c9800880c90000900e0007b
:102490001100340009057800e28f54000100360075
:1024a0002a002000c80190000a017800ec80570043
:1024b0005800900003000100500498000000e00064
:1024c00068003200680890000a004000600c980024
:1024d0008a845400edff3700180990000200e000e4
:1024e0000c003400c8019000e800900058009000f3
:1024f00003000100500498008080eb000000e00021
:1025000059003200e8089000180890000080400050
:10251000600c9800a80c90000900e0001100340045
:1025200009057800e28f5400010036002a002000df
:10253000c80190000a017800ec8057005800900014
:1025400003000100500498000000e0004500320044
:10255000680890000a004000600c98008a845400cb
:10256000edff3700380990000200e0000e00340053
:10257000e80090001808900080804000c80190009a
:102580005800900003000100500498008080eb0088
:102590000000e00034003200e808900038089000a5
:1025a00000804000600c9800c80c90000900e0001a
:1025b0001100340009057800e28f54000100360054
:1025c0002a002000c80190000a017800ec80570022
:1025d0005800900003000100500498000000e00043
:1025e00020003200680890000a004000600c98004b
:1025f0008a845400edff3700081090008000eb0043
:102600000028a300180032000b00e0001600340080
:102610008b04780009057800e28f54000100360031
:102620002a002000c80190000a017800ee805700bf
:102630005800900003000100500498000000e000e2
:1026400008003200680890000a004000600c980002
:102650008a8454004240a900eeff3c008000eb0059
:10266000010037008080eb00010078004f06780001
:102670004f05be004f04be000080fa0000000600b7
:102680000108780000000600e60040001101780013
:1026900005002800850261006f0161008208780052
:1026a000020032001200200011003700a00190004b
:1026b000120020000300e0000d003a00900190009d
:1026c0000300e0000a003a001000e00008003a00b1
:1026d00036003700640340009608780080017800d7
:1026e000530b7800900978000408780070015100bd
:1026f000110278000400e000f6ff320013003700fa
:1027000064024000140378004f33de0083814100ef
:102710008308730080017800d3037800cf3bde008c
:102720001403780006034300068a7300130278003e
:1027300004024200100378004f33de008609720065
:1027400090017800038841000201e90091017800be
:10275000ef8f5100eaff360010003700800178004b
:10276000530378004f33dd001002d10004087300da
:102770006402400094037800cf3bdd001303d100d6
:1027800086897300110378004f33dd009401d10076
:10279000030a73009108d1000201e800910178005a
:1027a000ff8f5100edff3e00ef88610091887200bd
:1027b00002007800000006008f1fd10013030700fd
:1027c0008f87e9000000e00000000600809feb001a
:1027d0000e0307008f87e9000000e00000000600fc
:1027e0002800fa00889fbe008a9fbe008c9fbe0012
:1027f00003866b008f0007006400e1004400320094
:102800006408e1004a0032006100e1004600320045
:102810006108e10049003200ec0647006000b800a2
:102820003d02be003d03be00f48657006011b800b3
:102830003d04be003d05be007d0320000b003700b7
:102840000000a0008d06e9001300320004024200df
:1028500085824a0006034b0087834b00000040003e
:10286000818048000201490083814900080252002a
:1028700089825a000a035b008b835b00f0ff3b00f8
:102880000802420089824a000a034b008b834b00f6
:102890008d06e900edff3a008482720086827200a4
:1028a000f707b20087827200010032001500200095
:1028b0001e0490003e0b900006035400e63fb0005b
:1028c0000368a300070032000000a7000500a00075
:1028d0008301d1000281d3008180d3000080d30026
:1028e0000603e8008301d1000281d3008180d30078
:1028f0000080d3000002eb000482d2002100070018
:1029000003f0a1000cf0a70003f0a0005d00370069
:10291000640247006408e100570032003400be0042
:102920003401be00f6ff37006108e10052003200ba
:102930006011b8006000b800f1ff370003ff270006
:1029400002002000fbff3700839f68000100e000c9
:1029500002003d0060001000e08018000300e0006d
:1029600002003d0060011100e08119000f01070025
:102970004f00e00002003b0060001000e080180003
:102980000000060018002000570020000804530033
:102990000d003d000600200097fc2f000740e100dd
:1029a0001e00340084827200610260008301d10045
:1029b0000281d3008180d3000080d3000804e800a6
:1029c000f8ff3a004700200061046000050474002d
:1029d000040464000d00320061004000e080480003
:1029e00060014900e081490003b8a50007003200fa
:1029f0000603e8006538e10004003a008301d100d5
:102a00000281d3008180d3000080d300f87f2000b2
:102a10000830e10003003500080378006000b800ca
:102a20006011b8004433dd00f300b200830173008d
:102a300000000600680447000294be000094be0037
:102a4000fc0447008694be008494be000900780010
:102a5000b702070008007800b50207009900780067
:102a6000814f70000b003b000800be009002070081
:102a70004f00b10003003700f3ff2700f2ff2f00e3
:102a80006110b9004f06be004f05be004f04be00e6
:102a90000080fa0000000600810378009ff707001d
:102aa0000001be006000b8000478a30013003a00e3
:102ab0006220e10015003e000d0039008301d100c5
:102ac0000281d3008180d3008301d1000281d30031
:102ad0008180d3008301d1000281d3008180d300a3
:102ae0000538b000c42add00f300b2008381720013
:102af00007f0a70003f0a00000000600f3ff270086
:102b0000f2ff2f006110b900fbff370003ff270021
:102b1000f7ff37001400fa00889fbe008a9fbe00ae
:102b20008c9fbe000004be000205be006800470086
:102b30000a90be000890be007d0207000070a7004a
:102b40000bf0a100304320009e02900080825200d2
:102b5000b0fe2f000028e10011003d00b0fc2f0066
:102b60000028e100150034001e0990008e08900036
:102b70007e0090000501b0000201d1008180d300e9
:102b80000080d3008502e800fbff3a000b00e00064
:102b9000bcff3b0060001000e0801800b9ff370068
:102ba000f0ff2f00f1ff27000b00e000b5ff3b0016
:102bb0000100280000002000b2ff37006000b800cc
:102bc000b0ff37004f89de00820178007f023700b6
:102bd0002800fa00889fbe008a9fbe008c9fbe001e
:102be00003866b0093ff07000028a30064003a00ef
:102bf0000128a30067003a000008a30062003a0021
:102c00000108a30065003a001e009000be08900075
:102c100081064000ed3fb100f4805700ee019000c6
:102c2000111ab8008e099000311bb8009e0990005f
:102c3000311cb800511db800f4855700460007004c
:102c4000fe0190003a0007008b85e8003e00070077
:102c50008e09900040000700ee019000340007004c
:102c60008b85e800380007008e09900040000700bf
:102c70009e0990001b18b800890440000a8548008e
:102c8000fe019000340007008b85e8003800070043
:102c9000ee019000300007008e0990001b18b8006c
:102ca000890440000a8548000a98a30008003a00f9
:102cb0000402420085824a0006034b0087834b00d2
:102cc00008044c0089844c000a054d008d06e9007b
:102cd00084827200850273004c3add008502720026
:102ce0000100320015002000443ade001400b2005a
:102cf0004538de00cb45dd000b007000c540de002e
:102d0000cb4ddd008b8070004549de00cb55dd00ea
:102d10000b017100c551de000d03780019ff07009b
:102d200003f0a1000cf0a70003f0a00055ff37004e
:102d30001b18b8008502400006834800e0834b0062
:102d400060044c00070037001b18b8000603400061
:102d500087834800faff37001b18b800870340003c
:102d600008844800e0844c0060054d000000060027
:102d70001b18b8000804400089844800faff370097
:102d80000108a3003cff3a005800be005801be00f5
:102d9000e3ff37000008a30037ff3a00090478007a
:102da000f9ff370007f0a2001b0137006022b800ce
:102db000060220000000d0008180d2000482d200f0
:102dc0008582d2000000a0000202520083825a00d5
:102dd000030031000202420083824a000000a10089
:102de0000603e900f3ff3a0000000600efff0700ca
:102df0000400be0000000600020ab900001bb90072
:102e00000200b8008100420081004300000006007b
:102e1000889fbe008a9fbe0030044200b0844a00f2
:102e200030054b0090854b006000b1000898be0053
:102e30000a90be000440e10005c8e10006d0e100b0
:102e400007d8e10002003100680040001008e800e7
:102e50004f05be004f04be0000000600889fbe0064
:102e60008a9fbe003004be002005be000418540036
:102e700005985c0006185d0007985d0011002000b1
:102e80000440e10005c8e10006d0e10007d8e100f8
:102e9000010039008000eb00108810004f05be00d3
:102ea0004f04be00000006001200fa00889fbe001a
:102eb0008a9fbe008c9fbe00e0b79f00f1b79f00c5
:102ec00082bf9f0093bf9f000605be000404be00a2
:102ed0000000eb00d0b79f00c0b79f00b0b79f00c5
:102ee000a0b79f0090b79f000006eb005fb197006e
:102ef000cfb09700820141003fb097000200e00090
:102f000004003d00370007007e805700c0ff070027
:102f100003003700330007007e805700cfff070013
:102f2000dfb697000d00e0000c0035006fb297008f
:102f3000ffb297000fbb97009fbb970010002000c7
:102f4000010020006011b80000027200818272004e
:102f500002037300838373001b0007000c06e80064
:102f600001042000810f5600e0ff3a000d00e00050
:102f700004003d000802be000a03be007e80570028
:102f8000a3ff07005fa897000000e00005003a00db
:102f90001fb29700afb297003fb39700cfb397002f
:102fa000090007006fb09700ffb097000fb99700b6
:102fb0009fb997004f06be004f05be004f04be00ec
:102fc0000080fa0000000600010007000000060073
:102fd000a4b79f00b5b79f00c6b79f00d7b79f00a3
:102fe000000006004f09de0082817100b3b79f0028
:102ff0004f01de008180400082807000a1b79f00f9
:103000008fb097004f09de00000040000200700002
:1030100090b79f007fa897004f01de00818040009d
:103020008280700081b79f000d0007004f3ade00dc
:103030000000400004007000f0af9f00080007008f
:103040000402420085824a0006034b0087834b003e
:10305000dfff07000802be000a03be0000000600f2
:103060002fb29700bfb297004fb39700dfb397001e
:1030700000000600881f780018002000881f7800d4
:1030800089ff07008f87e9004f04780000000600e1
:10309000801feb0084ff07008f87e9000000060017
:1030a000889fbe008a9fbe00e00f5000e08f58004e
:1030b000e00f5900e08f59000c003d006044b8005b
:1030c0006055b8000000540081805c0002015d0082
:1030d00083815d00180020001500070008003d00f6
:1030e000180007000004eb00050037000004eb00a7
:1030f0000f00070002003d0012000700180020002a
:10310000dcff07000800e000060032006022b80083
:103110006033b8000000520081805a0002015b0059
:1031200083815b004f05be004f04be000000060017
:10313000e00f5200e08f5a00e00f5b00e08f5b0071
:10314000000006006044b8006055b8000402540056
:1031500085825c0006035d0087835d000000060039
:10316000889fbe008a9fbe008c1f7800e00f500031
:10317000e08f5800e00f5900e08f59000d003d002e
:103180006044b8006055b8000000540081805c00c5
:1031900002015d0083815d001c0020000820e10029
:1031a00009a8e1000ab0e1000bb8e1000d003d0004
:1031b000080037000006eb00e00f5200e08f5a00d5
:1031c000e00f5b00e08f5b0006003d006044b8004c
:1031d0006055b8000402540085825c0006035d005f
:1031e00087835d00aaff07000c00e00006003200a4
:1031f0006022b8006033b8000000520081805a009d
:1032000002015b0083815b004f0678004f05be0022
:103210004f04be00000006002800fa00889fbe0090
:103220008a9fbe008c9fbe000706780087866900d3
:103230000c003b00030478008704780008f0a1002c
:1032400009f0a100840f5000858f5800860f5900a7
:10325000890f5c00030033000cf0a20001003a006b
:103260000cf0a100f3fd07006400e1005f003200f4
:10327000780147006408e100610032006c014700fa
:10328000748557003200be001201be003a04be0031
:103290001a05be001e039000be0a9000850353006d
:1032a00006003d000004fd008104fd000205fd0054
:1032b0008305fd008703ea00050378000df8a300ed
:1032c0000400320060041400e0841c0060051d004e
:1032d000e0851d006022b8007d0320000d38e1006c
:1032e0008006eb000b0039004433dd00f300b20030
:1032f0008301730039003700848272000d02780068
:10330000e10664008b85d1000a85d3008984d3004f
:103310000884d3008703e900f7ff3b000800400062
:10332000898048000a0149008b81490004003b0064
:1033300060001000e080180060011900e0811900b1
:103340000358a300090032008d827200848272004b
:10335000610260008301d1000281d3008180d3002b
:103360000080d3000603e8001b0037000348a300d9
:1033700017003a000600e000170034000603e900d9
:103380000d00a300000048008180480002014900b0
:10339000838149000348a3000f003a000600e000c3
:1033a000090034000603e900000040008180480065
:1033b000020149008381490001003a000003eb004b
:1033c0000348a300f5ff32006022b8000200370076
:1033d00084827200618266006afd070003f0a1002a
:1033e0000cf0a70003f0a000a6fd37006401470021
:1033f0006408e10002003a000df8a3009efd3a00c7
:103400003200be001201be009efd3700889fbe0044
:103410008a9fbe008c9fbe000404be000605be004d
:10342000809fbe00829fbe002f0007000406780028
:103430000800be000a01be002b00070084067800c9
:103440004f03be004f02be008d4f76007fb0970045
:1034500013003300f0ff2f008b8f6b0006003b0042
:103460000d0666000c00a7000a00370007f0a60052
:10347000100020000a003700880f5200898f5a0080
:103480008a0f5b008b8f5b00030039001000200067
:1034900001003e000000200007f0a7000000ea0045
:1034a0004f06be004f05be004f04be0000000600e0
:1034b000e48240001078a30007003200640240005c
:1034c0001178a3003400be001401be0004003200d5
:1034d0000330a700000006003500be001501be0045
:1034e0000330a0000000060005ff270005826100f0
:1034f000070032000428e10001003200240005002a
:103500000600070001003a00440005000408050019
:1035100002000700f9ff3a00140005006f82610005
:1035200081027000850271008502720000000600b1
:10353000800078005002be005003be004439de0017
:10354000f700b200f37f20000301610009003200a0
:103550000218e10016003a00850172008301730031
:10356000838173000008200015003a00400020000d
:10357000130037008501720083017300838173009b
:1035800005003a0004a8be0006a8be0010002000f6
:103590000b0037000201e9000402420085824a0064
:1035a00006034b0087834b000748a300f9ff320056
:1035b0000740a00004a8be0006a8be00200020000e
:1035c000800098009200980000000600881f780094
:1035d000030478000300e00007003d0060001000d5
:1035e000e080180060011900e081190002003b0032
:1035f00001f02d00030037000400070008f0a700c9
:1036000003f0a0004f04780000000600889fbe0071
:1036100000827000040271000482710024003200f4
:1036200036432000c50020008383cf000a00390004
:103630000541b1008283cf00070039000541b10088
:103640008183cf00040039000541b1008083cf00a1
:10365000010039000541b10085c353006022b80064
:10366000120032000a003b00848272006102600096
:103670008301d1000281d3008180d3000080d30078
:103680000603e8008743e800f7ff3a000700370029
:103690000000400081804800020149008381490008
:1036a0000603e9008743e900f9ff3a00b5fc07008b
:0836b0004f04be0000000600fb
:020000040000fa
:1036b80000000000204200000000000070420000ee
:1036c80000000000a042000000000000c842000006
:1036d80000000000f0420000000000000c43000061
:1036e8000000000020430000003400009e46000057
:1036f80000060000ae46000000d80000bd460000ed
:1037080000aa0000cd460000007c0000dd46000055
:1037180000650000e5460000004e0000ed46000090
:1037280000a20000f346000000f60000f946000081
:103738000025000000470000004f0000034700007c
:10374800007900000647000000a3000009470000b8
:1037580000cd00000c47000000f700000f470000f4
:103768000021000013470000004b0000164700002e
:103778000075000019470000009f00001c4700006a
:10378800003400001e470000000000000000000098
:103798000000000000000000000000000000000021
:1037a8000000000000000000000000000000000011
:1037b8000000000000000000000000000000000001
:1037c80000000000000000000000000000000000f1
:1037d800000000000000000064000000130000006a
:1037e8003305000099020000486500006c6c000079
:1037f8006f5700006f7200006c640000004d0000fd
:103808005342000020690000732000002564000076
:10381800202c0000204c00005342000020690000ca
:103828007320000025750000200000000a0d00002c
:1038380000500000726500002d6300006861000000
:10384800726700006520000043610000707300008b
:103858000a0d0000004e00006f7200006d6100004c
:103868006c2000004f700000657200006174000059
:10387800696f00006e0a00000d000000436f000031
:103888006e7600006572000074650000722000000a
:10389800737400006f70000070650000640a000017
:1038a8000d000000436f00006e7600006572000096
:1038b8007465000072200000727500006e6e0000d2
:1038c800696e0000670a00000d000000496e0000e4
:1038d80063720000656100007365000020700000dd
:1038e80065720000696f0000640a00000d000000a6
:1038f80044650000637200006561000073650000a4
:103908002070000065720000696f0000640a000002
:103918000d000000496e0000637200006561000040
:103928007365000020640000656100006474000095
:10393800696d0000650a00000d0000004465000084
:103948006372000065610000736500002064000078
:103958006561000064740000696d0000650a00007c
:103968000d00000050650000726900006f640000df
:103978002069000073200000256400002c2000004e
:10398800647500007479000020690000732000004d
:10399800256400002c20000064740000696d00009c
:1039a80065200000697300002025000064200000e5
:1039b800202000002000000025640000000d000009
:1039c8000a000000252e00003266000000000000fa
:020000040000fa
:1039d8000000fa00889fbe008a1f78003a06070098
:1039e8004d0607009d060700a0df8400d2022000d4
:1039f8008000eb00140507005c040700550307006e
:103a0800604280008b050700a0df84006406070081
:103a18008142800070428000b505070093050700c9
:103a28009f0507008d05070099050700c8050700d1
:103a380025050700630307005e04070080bf29000f
:103a4800840407008142800070428000811f780052
:103a5800801f780030c02900801f7800a08a2000cd
:103a680085f40700e6875700a08a2000790407003c
:103a7800a0c12900770407000100370000000000fa
:103a880070408000ea0f5000fcff3a00404680007a
:103a9800514680008040880091408800a046800000
:103aa800b1468000a0408800b14088008046800070
:103ab80091468000e0408800f14088006046800020
:103ac80071468000c0408800d1408800c046800010
:103ad800d146800000418800114188000e28ef007f
:103ae800c6408000d7408000044180001541800016
:103af800e2408000f3408000a0408000b140800098
:103b08008840800099408000869fbe000403be0064
:103b18000202be000001be000800be00430207000a
:103b2800e487570080418800804180000000e00061
:103b380023003a000140800080df8400808f50001d
:103b480005003a000028ef00104080000000e8005f
:103b58001040880003003700004080000000e800a3
:103b6800004088001140800090df8400808f500062
:103b78000200350090df840010408800104080006b
:103b8800c200dd0080b72900008040001002be009e
:103b9800e2408000f3408000a0408000b1408000f7
:103ba80088408000994080000403be000202be00e5
:103bb8000001be000800be006302070002003700d3
:103bc800db02070067050700514080002003200042
:103bd800808f500004003a000a28ef00504280000d
:103be8000000e800504288002840800039408000ea
:103bf8000641800017418000e4408000f5408000c5
:103c0800a2408000b3408000804080009140800046
:103c18005a428000889fbe00869fbe000403be00f3
:103c28000202be000001be000a0078007603070009
:103c3800e8875700204088003140880050408000c5
:103c48000000e800504088006000b8004046880046
:103c5800514688006000b8006046880071468800b8
:103c68006000b80080468800914688006000b8006f
:103c7800a0468800b14688006000b800c0468800a9
:103c8800d14688007eff37003600f800809fbe00ce
:103c9800829fbe00849fbe00869fbe00881f78005a
:103ca8000600fa00010a800011079800010a800046
:103cb800210798008420a900ae0090001e00900003
:103cc800808f500004003600ae0090001e00900067
:103cd800008f500005003700610880001e0090002a
:103ce800808050002e009000008f40001e00780059
:103cf8008000eb00d7f2070018c0b3000260240070
:103d0800133a2400b4f207000000e0000100340078
:103d18000044eb000804e00084003a001e0078002c
:103d28008000eb00cbf2070018c0b30002e02600c9
:103d3800d3472400aaf207000000e00001003d007c
:103d48000044eb000804e0007a003a00904180004b
:103d5800e50f50000d003a00b04180008000eb00f4
:103d6800bcf2070002002000030a240058f20700f2
:103d7800baf207009cf2070000007800a041880012
:103d88003628ef003228ef00060037009041800007
:103d98000000e80090418800b04180001e0040000b
:103da800b0418800a04180008000eb00a9f2070024
:103db80018c0b30002502d003344240088f20700d5
:103dc8000000e00001003d000044eb000804e000b2
:103dd80033003200a04180008000eb009df2070014
:103de80018c0b30002e02600d34724007af2070087
:103df8000000e000010034000044eb000804e0008b
:103e080027003200d04180000000e00024003a0082
:103e1800c0418000e10f50000f003200e10f500058
:103e280003003c000000e0000700320019003700e2
:103e3800ea0f50000c003200c1032000810f50002f
:103e48000d00320013003700160207001000200092
:103e5800c041880012003700c04180000000e8001f
:103e6800c04188000e003700c04180000000e80013
:103e7800c04188000a003700c04180000000e80007
:103e8800c041880027040700190207001c02070028
:103e980003003700c04180000000e800c0418800ee
:103ea800a04180008000eb006af2070018c0b30050
:103eb80002602400133a240049f207000000e000e1
:103ec80001003d000044eb000804e000100032004f
:103ed800a04180008000eb005ef2070018c0b3002c
:103ee80002e02600d33f24003bf207000000e00078
:103ef800010034000044eb000804e0000400320034
:103f08003828ef003a28ef00090207009504070057
:103f1800d0418000e10f500007003a003828ef0038
:103f2800030207008f0407000300370000000000a9
:103f380001003700000000000080fa004f047800fc
:103f48004f03be004f02be004f01be004f00be002f
:103f58003600f900004006003600f800809fbe00d9
:103f6800829fbe00849fbe00869fbe000000fa00ac
:103f780010002000d0418800ed0107008780a900cb
:103f88000080fa004f03be004f02be004f01be0082
:103f98004f00be003600f900004006003600f80069
:103fa800809fbe00829fbe00849fbe00869fbe0089
:103fb8003400fa000040eb00004f78003011800018
:103fc800004f78001e00fb0031062000810f5000d2
:103fd8002800320031062000810f50000d003c00ff
:103fe80011062000810f5000140032001106200035
:103ff800810f500017003c00d1022000810f5000b3
:1040080034003200d1032000810f50002400320018
:104018005100370051062000810f50004400320043
:1040280051062000810f500018003500710720004c
:10403800810f50003400320047003700100620007e
:1040480020118800d0c1290002030700950107004c
:10405800410037002006200020118800f0c2290006
:10406800fc020700af030700a1010700a401070035
:1040780039003700ae010700300620002011880003
:1040880020c42900f302070033003700400620004f
:104098002011880060c52900ee0207002e003700b5
:1040a800e04180000080e800e04188001042800084
:1040b8000000e8001042880011428000e0418000c2
:1040c800d2022000af030700a0c62900e1020700c2
:1040d80021003700e04180000080e900e0418800cd
:1040e800104280000000e900104288001142800060
:1040f800e0418000d2022000a2030700c0c72900c7
:10410800d402070014003700404280000080e80015
:10411800404288004242800011428000e041800015
:1041280098030700e0c82900ca0207000a00370000
:10413800404280000080e9004042880042428000fe
:1041480011428000e04180008e03070020ca290048
:10415800c0020700000000004342800012428000b5
:10416800e14180000e00e800831f7800821f78007c
:10417800811f780061cb2900811f7800bef20700fb
:10418800e88757000e00e800b2020700a0c1290026
:10419800b00207008560a9000080fa004f03be0046
:1041a8004f02be004f01be004f00be003600f900ae
:1041b800004006000000fa008580a9000080fa008f
:1041c800004006000000fa0087e0a9000080fa001d
:1041d800004006003600f800809fbe00829fbe00a7
:1041e800849fbe00869fbe00889fbe000000fa0024
:1041f80091c0a9004046800051468000020020007e
:10420800030e2400f0f107000004be00001a80002d
:104218008000eb008ff107000001be000800be001f
:10422800cef0070070f10700000078004300de00c0
:104238008000eb0087f1070040468800514688005f
:10424800604680007146800002002000030e2400b2
:10425800ddf107000004be00101a80008000eb00aa
:104268007cf107000001be000800be00bbf007009b
:104278005df10700000078004300de008000eb00dd
:1042880074f1070060468800714688000080fa00d3
:104298004f04be004f03be004f02be004f01be00d8
:1042a8004f00be003600f900004006003600f80056
:1042b800809fbe00829fbe00849fbe00869fbe0076
:1042c800889fbe000000fa0091e0a90080468000a7
:1042d8009146800002002000030e2400baf1070076
:1042e8000004be00201a80008000eb0059f107008e
:1042f8000001be000800be0098f007003af1070070
:10430800000078004300de008000eb0051f1070058
:104318008046880091468800a0468000b14680000b
:1043280002002000030e2400a7f107000004be00cd
:10433800301a80008000eb0046f107000001be0043
:104348000800be0085f0070027f10700000078008c
:104358004300de008000eb003ef10700a046880025
:10436800b14688000080fa004f04be004f03be002b
:104378004f02be004f01be004f00be003600f900dc
:10438800004006003600f800809fbe00829fbe00f5
:10439800849fbe00869fbe00889fbe000000fa0072
:1043a8009200a900c0468000d1468000020020008b
:1043b800030e240084f107000004be00401a8000a8
:1043c8008000eb0023f107000001be000800be00da
:1043d80062f0070004f10700000078004300de00e7
:1043e8008000eb001bf10700c0468800d14688001a
:1043f800704080000000e800704088000080fa00eb
:104408004f04be004f03be004f02be004f01be0066
:104418004f00be003600f900004006000000fa0018
:104428008820a9000080fa00004006001000fa0069
:10443800881f7800008fbe00220798003307980075
:104448004407980055079800660798007707980072
:10445800104080000000e00002003a000000eb007d
:1044680036003700b2ad2800d3ed23001e00be0091
:1044780055f1070002bc25004300240037f007006f
:1044880018c0b3000200200063312400d2f00700f6
:104498000000e000010035000044eb000804e000e3
:1044a80010003a00b2ad2800d3ed23001e00be0074
:1044b80045f1070002bc25004300240027f007004f
:1044c80018c0b30002002000a3372400c4f007007e
:1044d8000000e00001003c000044eb000804e0009c
:1044e800020032001000200014003700521e26007f
:1044f80013ca23002e009000be00900032f107007e
:10450800c2e324006311240013f0070018c0b300ad
:10451800a299290093092400b1f007000000e000e7
:1045280001003c000044eb000804e00002003200f7
:1045380020002000010037000000eb004f04780045
:104548000080fa00000006001000fa00881f7800ba
:10455800008fbe0022079800330798004407980090
:10456800550798006607980077079800325e220082
:10457800932924004e009000de00900012f10700fd
:1045880082eb280053402400f4ef070018c0b30062
:104598006e019000fe0190008ff007000000e0001f
:1045a800010035000044eb000804e0000700320079
:1045b800e04180000080e800e0418800104280006f
:1045c8000000e8001042880017003700325e220021
:1045d800932924004e009000de009000faf00700b6
:1045e80082eb280053402400dcef070018c0b3001a
:1045f8006e019000fe01900079f007000000e000d5
:1046080001003c000044eb000804e0000600320012
:10461800e04180000080e900e0418800104280000d
:104628000000e90010428800e1418000f04180006c
:10463800808f500002003400f0418000e041880083
:10464800e141800000428000808f500002003d0060
:1046580000428000e0418800114280002042800032
:10466800808f5000020034002042800010428800f1
:104678001142800030428000808f500002003d00cf
:10468800304280001042880011428000e0418000e2
:10469800d20220003b0207004f0478000080fa0095
:1046a800000006000000fa003a28ef001102070097
:1046b800ac020700a0df8400d20220008000eb00db
:1046c80046020700a0df8400e0418800b0df8400d4
:1046d80010428800d0022000404288000028ef00e5
:1046e8000228ef00150307000080fa00000006000a
:1046f8000000fa00f40107000080fa00000006003c
:104708000000fa00b1df8400a0df8400d20220009c
:104718001c020700120307001a0307008c02070097
:1047280046030700270007000080fa000000060083
:104738000000fa00f8020700ee0107004303070033
:10474800240007000028ef000228ef000080fa008c
:10475800000006000000fa008820a9009820a9009f
:104768006022ef006222ef006422ef006382a9005a
:104778006362a9006342a90062a2a80065e2a900d9
:1047880065a2a9006322a9006302a8001013800093
:104798000000a0000010a000101388001013800073
:1047a8000020a0000030a1000040a00010138800e5
:1047b80062c2a9008820a9009820a9000080fa00f8
:1047c800000006000000fa0061e2a8000080fa007c
:1047d800000006000000fa0061e2a9000080fa006b
:1047e800000006000400fa00100798000000eb0023
:1047f800000f780060c2a9009e0090004113880055
:104808000000000000138000620060000000e0006b
:10481800fcff3a000000eb00000f780001003700b1
:104828001e0fe8001e007800e10f5000fcff340066
:104838000080fa00000006000000fa00f522a90036
:1048480060002000e7ff0700f522a8000080fa00ba
:10485800000006000000fa00f522a9004000200030
:10486800e0ff0700f522a8000080fa00000006001b
:104878000600fa00000f7800120798002307980036
:10488800f522a90060002000d6ff0700f522a80045
:10489800f522a90020002000d2ff07001e0090008a
:1048a800ae0090004088de00cf80de000000780077
:1048b800ccff07001e009000ae0090004809dd0004
:1048c8004800de0000007100c888de0000007800a3
:1048d800c4ff07001e009000c2ff07001e007800fa
:1048e800c0ff0700f522a8000080fa0000000600bb
:1048f8000800fa0020079800310798000000eb0034
:10490800000f7800f522a90030002000b5ff07004d
:104918002e009000be0090004088de00cf80de00b0
:1049280000007800afff07002e009000be00900046
:104938004809dd004800de0000007100c888de007c
:1049480000007800a7ff07002e009000a5ff0700d1
:104958000c000700100798000000eb00000f78001b
:10496800010037001e0fe8001e007800e10f50001c
:10497800fcff3400f522a8001e0090000080fa0019
:10498800000006000200fa000080eb00000f78002b
:1049980060c2a90030012000401388000000000018
:1049a80000138000610060000000e000fcff32009e
:1049b80000138000610060000000e0000200320087
:1049c80041138000010f78001e0078000080fa0073
:1049d800000006000400fa006000b800008fbe0066
:1049e800f522a900f00920007eff0700e5ff070077
:1049f8008000eb00008fbe00f522a8001e00be005c
:104a08000080fa00000006000e00fa00000f78008f
:104a18001207980023079800340798004507980064
:104a280056079800670798001e0078001eb997007f
:104a3800aeb997008eff07001eb89700aeb8970072
:104a480061004000e080480010bf9f0021bf9f0028
:104a58001e009000ae00900063ef07000000780091
:104a68004200de001eb99700aeb9970080ff07002c
:104a78001eb89700aeb8970061004000e08048007b
:104a880010bf9f0021bf9f003e009000ce00900005
:104a980055ef0700000078004200de001eb99700bd
:104aa800aeb9970072ff07001eb89700aeb897001e
:104ab80061004000e080480010bf9f0021bf9f00b8
:104ac8005e009000ee00900047ef070000007800bd
:104ad8004200de001eb99700aeb9970064ff0700d8
:104ae8001eb89700aeb8970061004000e08048000b
:104af80010bf9f0021bf9f003eb89700ceb8970017
:104b080039ef0700000078000000d1001eb99700b7
:104b1800aeb9970056ff07001eb89700aeb89700c9
:104b280061004000e080480010bf9f0021bf9f0047
:104b38001eb99700aeb99700e0ff2f007100200062
:104b4800800f5100818f590004003400f0ff2f00be
:104b58007100200010bf9f0021bf9f001eb8970062
:104b6800aeb897000080fa00000006000000fa00c6
:104b78002002a900001180000010a1000020a1005f
:104b88000011880020a2a9002062a90010002000be
:104b9800401188002222ef002422ef008560a9003e
:104ba8008580a9009560a8009580a8000080fa007b
:104bb800000006000000fa0021e2a8000000000042
:104bc8002342a800000000000080fa000000060050
:104bd8000000fa0021e2a900000000002342a90019
:104be800000000000080fa00000006000000fa0043
:104bf8003002a900801180000010a1000020a1004f
:104c08008011880030a2a9003062a900f0002000bd
:104c1800c01188003222ef003422ef0087c0a900bb
:104c280087e0a90097c0a90097e0a8000080fa00d3
:104c3800000006000000fa0031e2a80000000000b1
:104c48003342a80000000000cd02a8000080fa004e
:104c5800000006000400fa00100798009e0090006b
:104c6800010f78000b0037000000000011118000d0
:104c780000102000008060000000e000fbff320010
:104c88001e007800104078000000fb00201188000a
:104c98001e0fe8001e007800104078000004e000b5
:104ca800f1ff3a000080fa00000006000400fa0054
:104cb800100798009e009000010f78000b00370045
:104cc800000000001111800000102000008060002a
:104cd8000000e000fbff32001e0078001040780062
:104ce8000000fb00a01188001e0fe8001e007800dd
:104cf800104078000004e000f1ff3a000080fa005c
:104d0800000006001200fa002007980032079800f9
:104d1800430798005407980065079800760798009d
:104d2800070f9800ae009000811f780000ce290080
:104d3800801f78000e007800cfef0700e487570047
:104d48000e007800c3ff070030ce2900c1ff07001e
:104d58003e009000ce009000809fbe0060ce2900eb
:104d6800801f78000e007800c3ef0700e687570021
:104d78000e007800b7ff070030ce2900b5ff070006
:104d88005e009000ee009000809fbe0060ce29007b
:104d9800801f78000e007800b7ef0700e6875700fd
:104da8000e007800abff070030ce2900a9ff0700ee
:104db8007e0090008e089000809fbe0060ce290083
:104dc800801f78000e007800abef0700e6875700d9
:104dd8000e0078009fff070030ce29009dff0700d6
:104de8001eb89700aeb89700809fbe0060ce29001d
:104df800801f78000e0078009fef0700e6875700b5
:104e08000e00780093ff070030ce290091ff0700bd
:104e18003eb89700ceb89700809fbe0060ce2900ac
:104e2800801f78000e00780093ef0700e687570090
:104e38000e00780087ff070030ce290085ff0700a5
:104e48000080fa00000006000600fa00000f780053
:104e580011079800220798000024ef000224ef00b1
:104e68001e007800202088001e0090005020880036
:104e78002024ef001e009000302188002824ef0035
:104e88002e009000502188002e009000602188009c
:104e980010342000102188004024ef001e00780004
:104ea800302288004824ef002e009000502288000d
:104eb8002e00900060228800103420001022880004
:104ec8000080fa00000006000000fa002324a90070
:104ed8002304a9004324a9004304a90023e4a8004b
:104ee80023c4a80043e4a80043c4a8000080fa0033
:104ef800000006000000fa0001e4a900e022a90071
:104f0800e002a900e062a900e042a900e422a900a9
:104f1800e402a800e462a800e442a9000080fa00c4
:104f2800000006000000fa00e022a900e002a90043
:104f3800e062a900e042a90023e4a90023c4a90073
:104f4800102180000060a0000070a10010218800de
:104f580043e4a90043c4a900102280000060a10016
:104f68000070a000102288002324a8002304a800b1
:104f78004324a8004304a80001e4a8000080fa0024
:104f8800000006000600fa00000f780011079800dc
:104f9800220798001e007800202088001e0090003c
:104fa800502088001e009000302188001e009000cc
:104fb800302288002e009000502188002e0090009a
:104fc800602188002e009000502288002e0090005a
:104fd800602288000080fa00000006000600fa003f
:104fe800000f780011079800220798001e0078002b
:104ff800202088001e009000502088001e0090008d
:10500800302188001e007800302288002e00900091
:10501800502188002e009000602188002e0090000a
:10502800502288002e009000602288000080fa003c
:10503800000006000200fa00000f78002008800037
:105048000040a1000050a000200888001e00780041
:10505800100888000080fa00000006000000fa002e
:1050680005e1a8000080fa00000006000000fa0030
:10507800800880000040a1000050a000800888003f
:10508800f0472000600888000080fa000000060051
:105098000000fa0011e1a8000080fa0000000600f4
:1050a8000000fa0042e1a800100a80000050a000a9
:1050b8000060a100100a8800100a80000000a0000b
:1050c8000010a1000020a100100a8800200580001f
:1050d8000040a0000050a1000060a1002005880049
:1050e8008420a9009420a8000080fa00000006008f
:1050f8000400fa00000f7800110798001e61a8004c
:10510800f00880000040a0000050a000f0088800cf
:10511800000980000040a0000050a000000988009d
:105128001421ef001821ef001e009000d00888001d
:105138001e007800e00888008760a9008780a90021
:105148009760a9009780a8000080fa000000060078
:105158000000fa001fe1a80021e1a8000080fa0081
:10516800000006000000fa001fe1a90021e1a900e3
:105178001421ef001821ef000080fa00000006005b
:020000040000fa
:10518800aa0800003200000000000000000800002b
:105198003c000000000000003c0800001600000071
:1051a800020000003305a800073305009902d40067
:1051b800039902002d00010000cc0100d2008000fc
:1051c800ca000000fe0800001a00000002000000eb
